:10000000A55A00010000008900010007000064807B
:100010008AACFFFFFFFFFFFFFFFFFFFFFFFFFFFFB8
:10002000FFFFFFFFFFFFFFFFFFFFFFFFFFFFFFFFE0
:10003000FFFFFFFFFFFFFFFFFFFFFFFFFFFFFFFFD0
:10004000FFFFFFFFFFFFFFFFFFFFFFFFFFFFFFFFC0
:10005000FFFFFFFFFFFFFFFFFFFFFFFFFFFFFFFFB0
:10006000FFFFFFFFFFFFFFFFFFFFFFFFFFFFFFFFA0
:10007000FFFFFFFFFFFFFFFFFFFFFFFFFFFFFFFF90
:10008000FFFFFFFFFFFFFFFFFFFFFFFFFFFFFFFF80
:10009000FFFFFFFFFFFFFFFFFFFFFFFFFFFFFFFF70
:1000A000FFFFFFFFFFFFFFFFFFFFFFFFFFFFFFFF60
:1000B000FFFFFFFFFFFFFFFFFFFFFFFFFFFFFFFF50
:1000C000FFFFFFFFFFFFFFFFFFFFFFFFFFFFFFFF40
:1000D000FFFFFFFFFFFFFFFFFFFFFFFFFFFFFFFF30
:1000E000FFFFFFFFFFFFFFFFFFFFFFFFFFFFFFFF20
:1000F000FFFFFFFFFFFFFFFFFFFFFFFFFFFFFFFF10
:1001000070190020810100008501000087010000B6
:1001100000000000000000000000000000000000DF
:100120000000000000000000000000008901000045
:1001300000000000000000008B0100008D010000A5
:100140008F0100008F0100002D1E00008F010000B4
:100150008F01000029180000991000008F01000095
:100160008F0100008F0100008F0100008F0100004F
:100170008F0100008F0100008F0100008F0100003F
:100180008F0100008F0100008F0100008F0100002F
:100190008F0100008F0100008F0100008F0100001F
:1001A0008F0100008F0100008F0100008F0100000F
:1001B0008F0100008F0100008F0100008F010000FF
:1001C00000F002F800F030F80CA030C8083824180D
:1001D0002D18A246671EAB4654465D46AC4201D17F
:1001E00000F022F87E460F3E0FCCB6460126334281
:1001F00000D0FB1AA246AB4633431847885E000086
:10020000A85E00000023002400250026103A01D338
:1002100078C1FBD8520700D330C100D50B607047BE
:100220001FB51FBD10B510BD00F02EFF1146FFF722
:10023000F7FF03F09FFD00F046FF03B4FFF7F2FF66
:1002400003BC00F077FF000070B505460C4616466B
:1002500002E00FCC0FC5103E102EFAD2082E02D3AA
:1002600003CC03C5083E042E07D301CC01C5361FBD
:1002700003E021782970641C6D1C761EF9D270BDD4
:1002800006480047FEE7FEE7FEE7FEE7FEE7FEE77B
:1002900003480449024A044B70470000C1000000B3
:1002A000701500207019002070150020F8B5042A80
:1002B0002CD3830712D00B78491C0370401C521EAC
:1002C00083070BD00B78491C0370401C521E830718
:1002D00004D00B78491C0370401C521E8B079B0FE7
:1002E00005D0C91ADF002023DE1B08C90AE0FFF78A
:1002F000ABFFF8BD1D4608C9FD401C46B4402C4369
:1003000010C0121F042AF5D2F308C91A521EF0D4E5
:100310000B78491C0370401C521EEAD40B78491C10
:100320000370401C012AE4D409780170F8BD01E093
:1003300004C0091F0429FBD28B0701D50280801C51
:10034000C90700D00270704700290BD0C30702D044
:100350000270401C491E022904D3830702D5028083
:10036000801C891EE3E70022EEE70022DFE700227F
:1003700003098B422CD3030A8B4211D300239C46E2
:100380004EE003460B433CD4002243088B4231D35A
:1003900003098B421CD3030A8B4201D394463FE0EE
:1003A000C3098B4201D3CB01C01A524183098B424E
:1003B00001D38B01C01A524143098B4201D34B0137
:1003C000C01A524103098B4201D30B01C01A52419A
:1003D000C3088B4201D3CB00C01A524183088B4221
:1003E00001D38B00C01A524143088B4201D34B000A
:1003F000C01A5241411A00D201465241104670477C
:100400005DE0CA0F00D04942031000D34042534080
:1004100000229C4603098B422DD3030A8B4212D340
:10042000FC22890112BA030A8B420CD38901921172
:100430008B4208D3890192118B4204D389013AD0AF
:10044000921100E08909C3098B4201D3CB01C01A84
:10045000524183098B4201D38B01C01A5241430997
:100460008B4201D34B01C01A524103098B4201D385
:100470000B01C01A5241C3088B4201D3CB00C01AF2
:10048000524183088B4201D38B00C01A5241D9D20A
:1004900043088B4201D34B00C01A5241411A00D28B
:1004A0000146634652415B10104601D34042002B87
:1004B00000D54942704763465B1000D3404201B506
:1004C0000020C046C04602BD70477047704700001C
:1004D0000246C80FC00781434B0030B54B405B005C
:1004E0009B0D20D01923DB06C91801231B05994257
:1004F00020DB0324A40704251346AB400BD3002BB9
:1005000004D1EB0613409B00E34204D401246407AA
:10051000002312195941FF231B0599420BD2C90030
:100520000143500F09E0CB0204D501430803024305
:1005300005D0054830BDFF21C905084330BD084638
:1005400007210905884330BD0000C07FF0B50C4687
:10055000871A9C410D46861A9D4103D2C01BA141BA
:10056000D21963410D0D1F0DC94EEC1BAE435CD07B
:100570007F057F0D0026002F51D02D05AC46A943E5
:10058000DD020123ED0A1B051D4320231B1B24D480
:100590001746E740381871412F46E740CC199D4077
:1005A0002818314661410C0D27D161449A4013D57A
:1005B0000023401C594152000ED140084000012246
:1005C0004B005205D34207D305204007C14201D555
:1005D000B04900E0B0493046F0BD6B00002A00D0C1
:1005E00001229A181F23203C1B1B01D5002302E087
:1005F000E540281871410C0DD7D0012424050919B4
:10060000C407CD0740084908E40F28436144002C83
:10061000D5D00024401C61419A40D0D1CDE76A0575
:10062000520DD9D1C90FC907D5E79C4D4E000028FE
:1006300001D0012400E0002434195F00002A01D019
:10064000012600E00026BE19954FAC420CD8AE4200
:100650000AD8B44206D001256D05EC42BCD0104644
:100660001946F0BD9942FCD000203946F0BDF0B5E6
:100670001FB40C460F46811A9F412546861A9D419C
:1006800006D20125ED076F40401ABC4152187B414C
:10069000210D1E0D8D1BAC467D4D8D437ED0750505
:1006A0006D0D7CD00D05AE46AC431B031B0B794D85
:1006B00052429D41202366469B1B14D31746F740A8
:1006C000381800260090744160462F460741E4190F
:1006D00000989D402818664116D4714671189A40BA
:1006E00025D5012320E093182A466A415200002BA9
:1006F00000D0521C1E23203E9B1B002B61DD354188
:10070000EE1728186641E8D5001876415B1C9A4020
:1007100000D3401C4B05F3181524E34010D3002BE5
:1007200052D071467118D30FC01802D3491C05B0BE
:10073000F0BD0123DB079A42F9D140084000F6E7FB
:1007400001225205B21801D1002853D00123CC0A4E
:10075000DB029943891E002A08D1020C03D0020C47
:100760000004103902E00246002020390023550B16
:1007700005D112020823550B01D152010D23550C4E
:1007800001D112011B1DD50C01D192009B1C150D2E
:1007900001D152005B1C2025EE1A01E02CE022E082
:1007A0000546F54015439840CA1AE1076918130534
:1007B000C918002ABBDA032040070818C10FC9076F
:1007C0000FE071466118B2E7F10740080843711065
:1007D00071444A000CD001235B059A42A7D2C90F8D
:1007E000C9070020A3E74905490D26D1002001E0F3
:1007F0000028F4D100219AE7284D6600002801D096
:10080000012100E0002171185F00002A01D00126BB
:1008100000E00026BE19224FA94210D8AE420ED8E1
:10082000B14208D001256D05E94206D01946A8025B
:10083000414010467BE79C4201D0214677E70020EB
:10084000394674E710B50C465C4005D50124E40731
:100850006340FFF70CFF10BDFFF778FE10BD30B40A
:100860000C465C4004D50124E407634030BC6DE6CF
:1008700030BCFCE670B50124E40761400D465D40E4
:1008800002D4FFF763FE70BD6340FFF7F0FE70BD5A
:10089000FF0700000000F0FF0000F07F0000E0FF15
:1008A0000000F87F1F22030C02D10F22000402D0A7
:1008B000030E03D004E00020014670470002083A0E
:1008C000030F01D10001121F830F01D18000921E7E
:1008D000002801DB4000521E120551184205C012CB
:1008E000411810467047C10FC90700D0404201228D
:1008F00092071143D6E701218907D3E7F0B58B4C66
:100900000F09254689B0BD437BD01D092646AE435D
:10091000FAD00E465E402740F60F3E43254071D088
:1009200024012142FBD0FF24AD19A4042D1B039503
:1009300001252D05DB02DB0AC9022B43C90A294325
:100940001E010901040F130F050121431701880B34
:10095000820391432D098C46A90B1E438A039543BC
:10096000B30B9A0396433F09BA0B9403A74302962D
:100970002E467E430497B6464E19D7190C4601966B
:10098000544305977E43371B7646BF1B3601B64658
:10099000BE0B361900967646BC043719009C01D36D
:1009A000641C00946400002F01D001263443029E91
:1009B000049F754366467E430496760034196E00A4
:1009C00034190094029C019E1C196643751BAE46A7
:1009D000069465464519059C05956C435943754633
:1009E0000891691A0191049E01465143A41B049188
:1009F000611A009C0791E10605D0610901221143AB
:100A000002E072E06EE06109089D00272C0A2D06C5
:100A10006918049D7C412A0A2D066918019D6241CE
:100A2000AC0DAD026D185441079A910D9202551903
:100A30006141029A644658435443069B059A5A43BF
:100A4000121A131B9A0E9B015B187A41010B0005C9
:100A5000C3185141220A200644195A419A4200D231
:100A6000491C01204002814203D315230226F6438C
:100A700002E014230326F6432020C51AA940174696
:100A8000AF40DA400A4320460399D840091473184E
:100A900019055118039A3843D2075140AC4009D088
:100AA0000122944006D30022401C5141002C01D168
:100AB000400840001E4A934212D301220398920636
:100AC000904207DB0520400709181A480143C0126D
:100AD000414004E0032040070818C10FC907002067
:100AE00009B0F0BD0020F107FAE705180C464C41AB
:100AF00011486D42A04115D394181A465A410E4828
:100B0000644290410ED301204A004005824209D33D
:100B10005A00824206D35940C90F084AC90700202B
:100B20001143DDE700200649DAE700000000FF0777
:100B3000FE070000FFFFFF7F0000E0FF0000F07FE6
:100B40000000F87F0121C9050123411842001B065E
:100B5000D3185B0E0AD0C1100722D20689184007AD
:100B60005242D14201D5520089187047090208D576
:100B70000146002A03D0C10FC90700207047104664
:100B80007047420202D00020024970470721090540
:100B90000143F4E70000F87FF0B5FF252D04C609F6
:100BA000C209FF2704462E400137CB093E43484087
:100BB0002A402B400746002A6BD0002B69D0AA425E
:100BC00067D0AB4265D0002800DA32460125ED053A
:100BD00029432C4309022002090AD21A4B0C7F2414
:100BE000E31A434C000A7C44E35C7D24240412197C
:100BF00014145B00A218884201D3521C00E040008C
:100C000049420C465C4324115C43DB016415E31844
:100C1000040A5C43C502200D0C4644436419250AAE
:100C20005D432303EC0C0D46654300030019EB18EC
:100C30004C42A34201D35B18401CD4052018002B62
:100C400007D05B00C91804D3401C002901D140081B
:100C500040003F2189048A4209D3002A08DC11069A
:100C6000090F04D0032149074018C00FC007F0BD89
:100C700001224100120689187F2252069142F6D2C3
:100C800005214907C84201D59010F0BDFF20C005DD
:100C9000F0BD002F00DA32461648AA4207D2AB4216
:100CA00005D21902090E17D0F80FC007F0BDFF25B5
:100CB00063002D06AB42F9D84900A942F6D8AB42F1
:100CC00001D1A942F2D0A94201D1002101E0610085
:100CD0004908D0050843F0BD1102090EFBD0FF20E2
:100CE0000243D005F0BD0A460146104654E7000015
:100CF0005A5400000000C07F10B501469E24000237
:100D0000CA15A307002A02D01843002A04DBA21A3E
:100D1000002A0CDDD04010BD1206120E01D1400099
:100D20004008A21A03D4D04040420028F3DDFF223D
:100D300048001206904201D9002010BDC817C043D8
:100D4000584010BD0102C21504D00123DB0719432E
:100D5000002A0ADB9E239A1A02D40846D040704724
:100D6000FF2241001206914201D900207047C017AE
:100D7000C04370471F22030C02D10F2200041CD075
:100D8000030E01D10002083A030F01D10001121F26
:100D9000830F01D18000921E002801DB4000521E0B
:100DA000D2055118021251181922904004D3491C3F
:100DB000002801D14908490008467047C10FC907FA
:100DC00000D04042012292071143D3E70121890755
:100DD000D0E7000010B5FF22C30D134009D05A40E0
:100DE00007D0914205DA5C42A14202DDC90508182C
:100DF00010BDC40FE407002B06D0002A06D000293E
:100E000002DBFF20C0050443204610BD4102FCD098
:100E1000004810BD0000C07F10B500F003F9006865
:100E200010BD10B5044600F0FDF8046010BD0000D0
:100E3000F8B5224C4E00069DA6420AD8A64201D122
:100E4000002806D15E00A64203D8A6420AD1002A95
:100E500008D00D24240425422CD02946002000F07F
:100E6000E5F8F8BD0C461C430CD4994202D0EFF3D0
:100E70000080F8BD904202D0EFF30080F8BDEFF3A0
:100E80000080F8BD09242407E5008B4206D0EFF36B
:100E90000080A043591A06D2284304E0101A05D353
:100EA000EFF30080A04380F30088F8BDEFF30080EB
:100EB000A043F1E7009500F0D1F8F8BD0000E0FF95
:100EC000F0B53D4B02460C461C400020002C63D080
:100ED0003A4D8B4366D000296BDB0B0D1D05A943F2
:100EE00001252D0529430124FD33E34001D3921848
:100EF0004941FF3381339C468B02940D01212343EA
:100F000089074C42920200271B198C105D1A04D4E9
:100F10002D1B02D42B466500491992185B416408C9
:100F2000F4D15C1A08D40125ED07EE175519744168
:100F300002D42A462346491C94185B410122920799
:100F40001D46E61B8D4106D4B61A854103D42B46B7
:100F5000550034467F1924195B415208802AEFD18D
:100F6000234300D0022338460A22D04001D3012275
:100F700013438A0510436246890A12058918002B1B
:100F800009D00122D34002D30022401C5141002B42
:100F900001D140084000F0BD0B03134307D0C90F37
:100FA000C907F0BD0803104303D1002901DB104637
:100FB000F0BD00202946F0BD0000F07F0000F87F62
:100FC00010B5FF231B0644009C421DD84C009C42D8
:100FD0001AD80346124A0B4307D4401A02D3EFF340
:100FE000008010BDEFF3008010BD081A06D2EFF3A9
:100FF000008001219043C907084302E0EFF300801D
:10100000904380F3008810BD0D231B041A4204D0C6
:101010001146002000F00AF810BD00F029F810BDBC
:10102000000000900048704710150020C80212D53B
:101030004803400F002804D0C803C0430121884062
:101040007047EFF3008000010009032109070843FE
:1010500080F30088704700207047000010B5002022
:101060000249029A00F037F810BD00000000F87F36
:1010700010B5024800F02FF810BD00000000C07F3E
:1010800000487047101500207546FFF7F9FFAE467F
:10109000050069465346C008C000854618B020B513
:1010A000FFF7F6F860BC00274908B6460026C0C521
:1010B000C0C5C0C5C0C5C0C5C0C5C0C5C0C5403D10
:1010C00049008D46704710B50446C046C0462046CC
:1010D000FFF7B3F810BD10B50C461107090F092929
:1010E00004D00A290AD008290CD104E011460820AE
:1010F000FFF79CFF06E0510606D501E0510601D539
:101100000120C007214610BDD10607D501010909FC
:10111000CC084907000E0006044309E0410F2002F5
:101120004907000A0143200E00061D22D141014358
:101130000846E7E701491820ABBEFEE7260002009B
:10114000704770B58C180578401C6B075B0F01D198
:101150000378401C2A1106D10278401C03E006786F
:10116000401C0E70491C5B1EF9D12B0705D40023CF
:10117000521E0DD40B70491CFAE70378401CCB1AA1
:10118000921C03E01D780D70491C5B1C521EF9D5A2
:10119000A142D8D3002070BD10B5044800F046F835
:1011A000002802D002480121817010BD00000E40CD
:1011B0003800002030B5CA780B79120113438A78C1
:1011C000012A01D1920513434A79D4028A790F2A60
:1011D00000D90F22120122430C7A012C01D10824DC
:1011E0002243CC7922430C781204A40022434C7889
:1011F000012C01D1022422434C7A80252C43074D37
:101200002C63C41DF934236080300260226EEB032E
:101210001A4322664989416030BD00000020005019
:101220008030016801221143016070470021803045
:1012300042681204120C00D102214269D20703D085
:10124000426901210A43426108467047FF3001307C
:10125000016E4900490801667047FF300130016E98
:101260000122D207114301667047890040580105E9
:10127000090D1180800301D50120704700207047BF
:10128000803041607047803041680904090C04D007
:1012900001680122D2021143016070471CB501218F
:1012A000102000F0BDFC032000F00CFD002069467A
:1012B00008700A200190684600F062FD00F058FDB9
:1012C0001CBD000010B500F043FD1C480168012260
:1012D000D203914301600168820211430160184901
:1012E0000A6904231A430A6101680202114301607A
:1012F00000F038FD1348016B49061DD4C16A490846
:101300004900C1620F4940390B68402213430B600A
:101310000B6893430B60C46A01231C43C46230BF53
:10132000C46A9C43C4620C6814430C600C68944308
:101330000C60C16A1943C16210BD0000002000505A
:1013400000ED00E04000024010B500F001FD09484A
:1013500001680122D2039143016001688202914336
:1013600001600548016904229143016100F0FAFC23
:1013700030BF10BD0020005000ED00E010B5082384
:1013800003720323437264234360036000200860F8
:1013900048608860C86004211046FEF7E4FF10BD75
:1013A00010B5044600F0D4FC0F4900220869C007BC
:1013B000FCD18B69402003438B612223CB60A218B0
:1013C000920892004A6001220A6100BF0A69D207AE
:1013D000FCD18A69520604D58A6902438A610120D8
:1013E00010BD002010BD000000C0005010B5044624
:1013F00000F0AEFC15490020086008680122104387
:10140000086008682278120210430860607800289B
:1014100003D10868802210430860A078012803D116
:101420000868202210430860E078012803D108688A
:101430001022104308602079012803D1086808228F
:10144000104308600248C86110BD000000C0005091
:1014500057450000F8B50C460546009200F078FCB0
:1014600017480026E41C174B04401869C007FCD13C
:10147000986940210843986100201DE00021D9604F
:10148000AF19BF08BF005F6099600121196100BFFB
:101490001969C907FCD19969490604D598694021A1
:1014A000084398610AE099688200009F401C241F4D
:1014B000B95080B2A4B22D1D002CDFD12846F8BD52
:1014C000FCFF000000C00050F8B515460C4606466B
:1014D00000F03EFC15490020E41C154B0C40196936
:1014E000C907FCD19A6940210A439A61012718E093
:1014F0002122DA603218920892005A602A689A60B3
:101500001F6100BF1A69D207FCD19A69520604D53F
:101510009869084398610120F8BD241F2D1DA4B2CD
:10152000361D002CE4D10020F8BD0000FCFF0000B7
:1015300000C000501CB50121022000F071FB012009
:101540006A4610700021517010719070D170684619
:10155000FFF74CFF1CBD000010B50022114601240E
:101560000346CB40DB0702D023468B401A43491C7D
:10157000C9B21029F4D30348110442680A434260F7
:1015800010BD00000040005009490A6800210346D0
:10159000CB40DB0706D0490001208840104000D036
:1015A00001207047491CC9B21029F0D300207047B0
:1015B0000040005004494968090C014201D0012053
:1015C000704700207047000000400050044909693E
:1015D00089B2014201D0012070470020704700000D
:1015E000004000500449896889B2014201D00120BD
:1015F0007047002070470000004000500449496ACD
:1016000089B2014201D001207047002070470000DC
:1016100000400050F0B500220B4B01240546D54098
:10162000ED0707D01E68012909D057002546BD40A7
:10163000AE431E60521CD2B2102AEFD3F0BD570049
:101640002546BD402E43F4E700400050044B9A6805
:10165000002901D0024300E082439A6070470000F5
:10166000004000503EB50121102000F00FFB012189
:10167000062000F0B3FA01210C07204600F0EAFA38
:10168000402000F099FA012269464A708A700320CE
:10169000C87007200871042048710A7202238B71F8
:1016A000CB71084D0B704A722846FFF783FD284620
:1016B000FFF7B6FD0448016AA14301622846FFF71F
:1016C000CCFD3EBD00000E4040010E40F1B586B09D
:1016D0008B4906988B4E085C7168012489B205918C
:1016E00021468140002588B20095019502957060E1
:1016F0008448C030016A4900490801622A462146EF
:10170000284602F073F800221146104602F06EF8E7
:101710007C48803001680705394301600168820414
:10172000114301603068D11308433060744E203695
:10173000B570FFF709FEB0780028FAD0714D8035FA
:101740002868B84328602868A90488432860069858
:1017500001F08AFE694608800490286838432860B2
:101760002868690408432860664801680122D2029B
:10177000114301600020B070FFF7E6FDB07800284B
:10178000FAD02868B84328602968012040068143C0
:101790002960069801F068FE694648800390296830
:1017A000012000060143296028680127BF0738434C
:1017B000286054480168FA14114301600020B07099
:1017C000FFF7C2FDB0780028FAD04E4D8035296869
:1017D0002804814329602868B8432860069801F0EE
:1017E00043FE694688800746286829040843286024
:1017F0002868490108432860424801680122D20252
:10180000114301600025B570FFF79EFDB0780028F8
:10181000FAD03C48803001680204914301600268BC
:1018200041058A430260069801F01EFE6B4606469B
:10183000D88003220121002001F0D8FF00210722D7
:10184000084601F0D3FF2F48C030016A4206114319
:1018500001622C490598486006996B46CA002A49DE
:10186000188888525B8851184B806B469A888A800A
:10187000CE80E123DB00254A0221984202D268464D
:10188000047206E004989042684601D9017200E0B3
:1018900005721F4B0398984202D26846447207E0D3
:1018A0004B235B019842684601D9417200E04572C2
:1018B00017489638874202D26846847206E0154877
:1018C0008742684601D9817200E085721048C830AD
:1018D000864202D26846C47205E09642684601D943
:1018E000C17200E0C5720146007A497A0843694630
:1018F0008A7AC97A0A43104300D0012007B0F0BDAC
:101900001800002080000E40780800208C0A00009B
:10191000DC050000FC08000010B50121002000F0EB
:10192000EBFA00F00DFB10BDF8B524480126067057
:1019300000270F2000F092F80025012815D020483C
:10194000C16A204C890614D51D4840300069607971
:10195000E179884205D220686179475C6079401C52
:101960006071384600F0CEF825E015488030006BF5
:1019700021E0C16A490713D500692179C0B2002965
:101980000AD0A179227A914215D22168A27988548D
:10199000A079401CA0710EE0267103F043F909E024
:1019A000032000F05BF8012805D1032000F00EF8B9
:1019B00025716571A57104480570F8BD020000200D
:1019C00000000240EC100020000000200B490B4AF0
:1019D0004039042810D005DC01280BD0032800D1A1
:1019E000086A7047052803D00F28FAD1106B70479A
:1019F00008697047486A7047906A704780000240E3
:101A00000248C16A01221143C1627047400002408E
:101A100001490020086370470000024000B50E49EC
:101A2000030000F0A9FB06170A070E120417086B43
:101A300020220DE0086B04220AE0086B01229202CA
:101A400006E0086B0122520202E0086B0122120339
:101A50001043086300BD0000000002400246002061
:101A60001149042A1DD008DC012A17D0022A12D0FD
:101A7000032A0AD1C96A89050AE0052A06D00F2A75
:101A800003D1C96A090403E001207047C96A8906C5
:101A90000029F9DB7047C96A4907F9E7C96A4905AE
:101AA000F6E7C96AC904F3E70000024010B514491B
:101AB000CA6AD207D20FCA621149027840398A60D5
:101AC00000220A600A6880231A430A6044780822C8
:101AD0000123082C01D9427002E0002C00D1437090
:101AE0004478641E8C638478082C01D9827002E0EB
:101AF000002C00D183708078401EC86310BD0000A8
:101B000040000240014908617047000000000240A7
:101B100010B5032900D90321264A40283CD012DC05
:101B2000082831D008DC012828D0022829D0042830
:101B300023D11068890529E010282AD020281CD13B
:101B4000506889032DE001246402031BA0422BD0BE
:101B500007DC802823D0FF3801280ED19068890146
:101B600009E0FF3BFF3B9B1E21D001208002834206
:101B700003D1906889070843906010BD10688901FF
:101B800004E01068890301E01068890708431060C9
:101B900010BD5068890104E05068890501E0506873
:101BA00089070843506010BD90688903E3E7906897
:101BB0008905E0E700E400E030B50022064B01248F
:101BC00021469140014202D01D680D431D60521C08
:101BD000D2B2102AF4D330BD00E100E030B50F4B93
:101BE0009A6920251024012809D002280AD0042847
:101BF00003D0062808D1AA4302E0AA4303E02A43FF
:101C0000A24301E02A4322439A61DA69FF200004DB
:101C1000824308041043D86130BD00000028005002
:101C200070B500220A4B01240546D540ED0706D0C9
:101C30005E680129254607D09540AE435E60521C80
:101C4000D2B2052AF0D370BD95402E43F6E70000CE
:101C50000028005070B50D46044600F079F80023C6
:101C6000094801210A469A40224204D08668012D83
:101C700008D0964386605B1CDBB2202BF2D300F0C9
:101C800071F870BD1643F5E70028005070B50D4699
:101C9000044600F05DF80023094801210A469A40F5
:101CA000224204D00668012D08D0964306605B1CD2
:101CB000DBB2052BF2D300F055F870BD1643F5E703
:101CC0000028005010B5044600F042F8072C0BD055
:101CD000082C0BD02820064A11694907490F0143F7
:101CE000116100F03FF810BD1820F4E73820F2E74A
:101CF00000280050012804D0022804D0032805D170
:101D000003E0022102E0032100E00721034A5069B9
:101D1000F02318400843506170470000002800502D
:101D200010B5044600F014F8084881690222032C1B
:101D300002D0052C05D101E0914300E01143490890
:101D40004900816100F00EF810BD0000002800502D
:101D50000348592101601621016088210160704704
:101D60000001005001490020086070470001005048
:101D700002480169490849000161704700E000E03C
:101D8000084942688A4200D90A4607494A61002246
:101D90008A610078012803D1086902221043086192
:101DA00070470000FF0F000000E000E000B5FFF703
:101DB000CFFF04490248086003490020086000BDC5
:101DC000FFFF00000024005000010050052109071A
:101DD0004A6882434A607047052109074A680243FE
:101DE0004A607047014800687047000000ED00E05D
:101DF00010B5052000070268114882421ED1FFF786
:101E0000A7FF10490869C007FCD18869402318431F
:101E100088610B20C86000204860886001240C6144
:101E200000BF0C69E407FCD18C69640603D58C699A
:101E30001C438C6100E08A6803490860104610BDAD
:101E40000061463700C000500001005001480068A2
:101E500070470000002400500148406980B270477C
:101E60004000005010B50524240762680A380300BA
:101E700000F082F90604090E202A2F340120000503
:101E800001292DD029E001208005022928D024E055
:101E900001235B065810052904D0022904D0032928
:101EA00004D005E01A431BE01A4316E09A4317E0FA
:101EB0009A4312E00123DB0658100629F2D00129CB
:101EC000F2D00429F4D1F1E701200007082907D056
:101ED00003E001208007072902D08243626010BD21
:101EE0000243FBE703480069000601D50020704764
:101EF0000120704740000050012903D00020044910
:101F0000086170478006000E01210843F7E70000D2
:101F1000400000500448026902218A4302610269BC
:101F20000A430261704700004000005010B50348AA
:101F300001214170002000F03FF810BD3800002062
:101F400008B50C486A460068009004210A48FFF76B
:101F500081FA6B46187859789B784218D2B293422E
:101F600006D102460A4303D0044A090208431080FE
:101F700008BD0000405B0000000F100006000020BC
:101F800010B50446002000F051F8034844600020DA
:101F900000F020F810BD00000000014010B504461C
:101FA000012000F043F803484460012000F012F8DB
:101FB00010BD0000002001400121002804D003488A
:101FC00082680A43826070470148F9E700200140B7
:101FD0000000014001218907002804D0034802685D
:101FE0000A43026070470248F9E700000020014000
:101FF000000001400A780023012A00D120234A78FA
:10200000D2001A4313028A7812011A431304CA78C1
:102010001A43002804D003480260496841607047B1
:102020000148F9E700200140000001400121890634
:10203000002804D0034802680A430260704702483F
:10204000F9E70000002001400000014010B5012127
:102050000846FFF7E5FD10BD08B501210802FFF7AE
:10206000F9FD2020FFF7A8FD00212020FFF750FDFB
:1020700004210D20FFF7F6FE03210C20FFF7F2FEEE
:10208000FFF7C6FC0520FFF7C9FC0220FFF7C6FCDE
:102090000320FFF7C3FC5021684601700121417005
:1020A00008218170FFF702FDFFF7AAFC08BD1CB5EF
:1020B00001210804FFF7CEFD0320FFF71BFE0420DB
:1020C000FFF77AFD02210420FFF722FD0120694677
:1020D000087048700920C8700A2001900020FFF79E
:1020E00089FF0020FFF776FF1CBD1CB501210846C3
:1020F000FFF7B0FD0320FFF713FE062069460870C6
:1021000001208870087148714870684600F002F834
:102110001CBD000070B505460078040268780128EF
:1021200001D180200443A878012801D14020044334
:10213000E878012801D1102004432879012801D131
:1021400002200443FFF704FE0348046069794160FC
:10215000FFF708FE70BD00000040004010B5FFF71B
:10216000F7FD04480168012211430160FFF7FAFD01
:1021700010BD00000040004030B47446641E257855
:10218000641CAB4200D21D46635D5B00E31830BCAB
:1021900018470000F8B5234A115C4B1C1354192949
:1021A0003ED9002111542049204E0D5C0F1834E017
:1021B00028206843841921462E31881E2622FEF7E6
:1021C00075F8680082195088522108530120C00315
:1021D000FF32413290800020410061182C23CB5EF9
:1021E0000421515E8B4200DB1946401CC0B2918035
:1021F0001428F1D30E4850820020410061182C238E
:10220000CB5E1221515E8B4200DA1946401CC0B2EF
:1022100051821428F1D36D1CEDB2B878A842C7D80A
:10222000F8BD00000A07002070060020980E00206C
:10223000FF7F0000F0B5224A115C0A293BD9224DEC
:102240004400204B66190124195CA4021B189D78D8
:102250002EE07388002B22D11C4B1B1880331B7A75
:10226000002B1CD0F388322B19D96423184F4B4311
:10227000DF197023FB5E8F00BF18BE463F69BC4666
:10228000BF12DB1B64277B43A34201DD234603E02F
:10229000104FBB4200DA3B46634477463B618B00FC
:1022A0009B181B694F009B12BF18491C7B80C9B249
:1022B0008D42CED8F0BD491C115402F0DFFDF0BDB7
:1022C000980E0020700600208C0E0020F80F0020D1
:1022D0005E0B002000FCFFFFF8B50D4D03212E180A
:1022E000803631720B490C5C0F180CE0204600F070
:1022F00013F8291980314872317A814200D8084692
:10230000641C3072E4B2B878A042EFD8F8BD000087
:10231000F80F002070060020F8B53A4A81008F18A7
:1023200000263A4BFE66C918096E0091364A6421B0
:102330004843344685183120001B400029180E20E0
:10234000085E2121091B490069180E228A5E811A44
:10235000FA6E8918F9662F21091B490069180E22A7
:102360008A5E801AFEF72AFD009903F071FBFEF7E2
:10237000C3FC00B2002801DD014600E04142B14249
:1023800003DD002800DC404286B2641CE4B2102C5D
:10239000D1D3403530222C21AA5E695E501A002824
:1023A00000DC881AFEF70AFD009903F051FBFEF7E6
:1023B000C9FC84B2F86E002800DC4042FEF7FEFC47
:1023C000009903F045FBFEF7BDFC80B2802805D2E2
:1023D000052C03D20A2E01D20320F8BDFF2805D810
:1023E000072C03D20A2E01D20220F8BD0121490296
:1023F000884205D20A2C03D2142E01D20120F8BD46
:102400000020F8BDF80F00205E0B002040000020E7
:10241000F1B5009A2D4B64256A4300240121D3189D
:102420007022D55E20463222521A52009A18D28962
:10243000AA1A12B200280AD0904201DA002803DC5E
:1024400090422EDD00282CDA104600242DE0072AC9
:1024500011DD3026761A76009F190E26BE5FAE1B60
:10246000072E08DD2F26761A76009F190E26BE5FEE
:10247000AE1B072E13DCD61D17DA3026761A76002F
:102480009F190E26BE5FAE1BF71D0EDA2F26761A99
:1024900076009F190E26BE5FAF1BFE1D05DA1046A3
:1024A00003E0641CE4B2042C03D8491CC9B21E2901
:1024B000B9D3FEF783FC0099054A89008918C96FD2
:1024C00003F0C6FAFEF718FC00B2F8BD5E0B002060
:1024D00040000020FEB53F490646885D3E4A891906
:1024E00049783D4C825C4118641E8218615CD5B20B
:1024F0000818C2B2680001192420085E002800DC18
:10250000404251000B192421595E002900DC494248
:10251000884200DC1546642030496843401840304A
:1025200030212C22415E825E881A002843DD68003B
:10253000001924220190825E002A00DC5242A0573A
:10254000400001192420085E1930002800DC4042B8
:10255000824230DD3220085EFEF7C5F9214F204A65
:102560003B46FEF7CBF90022134603F0CDF9A05706
:1025700008D2400001193220085EFEF7B4F9184A6B
:102580003B4607E0400001193220085EFEF7ABF938
:10259000134A154BFEF7B2F9009107460199242022
:1025A000085E002800DC4042FEF79DF93A46009B99
:1025B00003F0AAF908D3A057401C05D00B497000BE
:1025C00040184088012801D0A55500E0A55D2846A7
:1025D000FEBD000070060020F90F00205E0B0020F9
:1025E000333333333333D33F3333D3BF8C0E0020F5
:1025F000F1B586B0A5480090002001900698FFF73D
:1026000069FF0746069802214600A148A24A3518EC
:10261000695EA048B418002907D001297ED002299C
:102620007DD003297CD00020C6E07900091824223F
:102630008A5E03923C2A04DAEA88062A01D9022239
:10264000019240310E2205918A5E914B0698FF213E
:102650002D3118188A4206DDE988322903D2007923
:102660004006000E00E000790090642039464143A6
:102670008A483122081801990290511A49004018DD
:102680000E220199825E2F23591A029849004018A0
:102690000E21415E501AFEF791FB8149BA00511894
:1026A000C96F0F4603F0D4F9FEF726FB019900B27B
:1026B00030220490511A0298490040180E220199C4
:1026C000825E2E23591A0298490040180E21415E5D
:1026D000501AFEF773FB394603F0BAF9FEF70CFB0C
:1026E00002B26C4830188030408A000A06D16188F6
:1026F000012001436180A1880143A1800098322319
:1027000003995843814203DD6188022319436180A4
:102710000099049E8B00C918042302E051E079E07F
:10272000A0E0B14202DA66881E436680914203DA75
:10273000618808263143618005991C268E5F864298
:1027400003DD6088102108436080608820210843F1
:102750006080844631270099FF430398794388427B
:1027600003DAA08802273843A08004270098FF439B
:102770007843049FB84202DDA7881F43A780904298
:1027800003DDA08808221043A0808E4203DAA088CF
:1027900010210843A080E888322803D9A08820218E
:1027A0000843A080A088402108436146A0803F29BB
:1027B00005D07F2801D10220688007B0F0BD01203C
:1027C000FAE7344879000E183220305EFEF7F6FA48
:1027D000009903F03DF907462420305EFEF7EEFA3B
:1027E000394603F00BF903D2E08801210843E08069
:1027F0002421715E2748282903DAE1880222114347
:10280000E180E1880029D8D0032169800A1F069958
:102810004254D2E779000F184021C85FFEF7CEFA84
:10282000009903F015F900902420385EFEF7C6FAEF
:10283000009903F065F903D2208901210843208122
:102840002421795E2820C14203DD2089022108432A
:102850002081218910480029AFD000216980815B47
:10286000012210E0642047430C48302138184030E2
:102870002C22415E825E881A00289EDD002068803E
:1028800005480222815B1143815396E79A99993E4C
:102890008C0E0020F80F0020400B00205E0B002063
:1028A00040000020F8B5314A43002F499B1802220E
:1028B0000C5C09189A5E8978264694468E4620E07C
:1028C0002B496200521824213225515E555FA942DE
:1028D00000DD0D4655860095154640350027EF5F13
:1028E000B94200DD394629806146002907D1D988DF
:1028F000002901D10099E981002151862980641CB9
:10290000E4B2A645DCD81A4C400000196146042206
:102910008030002903D0198900290ED01EE0002143
:102920001981D988491C8CB2DC80418A4B0703D5B8
:102930003C2C01D991434182F8BDDC88142C0DD286
:102940000B4C641C345D34196500094C2C194E2560
:10295000655F502D02DD448A144344820020D880F4
:10296000491C1981F8BD0000700600208C0E002063
:10297000F80F002070B5104901230A5C081845784B
:102980000E488618520014182046711C24302A461E
:1029900002F088FC314620460831323001232A46B5
:1029A00002F080FC314620460F314E3001232A468A
:1029B00002F078FC70BD000070060020F80F0020C7
:1029C000F0B51A4E0446305D19494000401885B0F4
:1029D00035196A786946243002F010FC69462046B1
:1029E00000F074FA13486700011902200856B9195B
:1029F000498A6E46401881B26878022240008019E8
:102A0000825E204600F048FA0A497918088220467A
:102A100000F02CFC6946204600F0D0F968784000B0
:102A2000315E204602F06AFB05B0F0BD7006002062
:102A3000F80F0020B0100020F0B5174A174F4100E2
:102A4000135C0025C9191018867815E0144A58003F
:102A500084182422A25EC4190820205E824200DD70
:102A6000104620814A88002A04D18A88002A00D191
:102A7000E08225815B1CDBB29E42E7D848880028B3
:102A800004D08D80C888401CC880F0BDCD80888867
:102A9000401C8880F0BD0000700600208C100020D3
:102AA000F80F0020F1B584B004985B4C4100584801
:102AB00001220818438857480C190D18012B03D020
:102AC000A0891043A0819CE06189012211436181AA
:102AD000524A049B6E88D25C514BD35C9A18504B7F
:102AE000D7B202225B1E002E40D07800C0182426E8
:102AF000865F1E2E02DAA1891143A18140301C217C
:102B00000290415E701A0A38FDF7EDFE454A464BC9
:102B1000FDF7F4FE0090304601910A38FDF7E3FE20
:102B2000019B009A02F0BEFE03D2A0890421084353
:102B3000A08102981C21415E3220C14203DAA089A3
:102B400008210843A0810321384600F067F90821D5
:102B5000C84203DAA08910210843A081A089810717
:102B60004FD4C006400F07284BD04CE07F00FE1822
:102B70002423F35E0293322B01DD11436181403641
:102B80001C21715E322903DD6189042211436181B8
:102B90003F181620385EFDF7A6FE224A224BFDF7AD
:102BA000ADFE009001910298FDF79DFE019B009AF9
:102BB00002F0AAFE02D3A888462803D9608908211A
:102BC000084360811620385EFDF78DFE154A164BCE
:102BD000FDF794FE07461C200091305EFDF783FE52
:102BE0003A46009B02F090FE02D3A8881E2803D923
:102BF000608910210843608160891F2803D101206A
:102C000000E0002068800498FFF716FF05B0F0BDD3
:102C10008C0E00208C100020400B0020700600203D
:102C2000F90F0020333333333333D33F10B51E2134
:102C30000148FDF798FB10BD400B0020002004491F
:102C400002460A54401C0006000EFAD070470000ED
:102C5000980E002070B5084D00242819007900282E
:102C600005D02046FFF7E6FA2046FFF793FA641CEA
:102C70002406240EF1D070BD70060020024600200C
:102C800001210B468340934204D0401CC0B210285F
:102C9000F7D3002070470000F8B53A490024085FD8
:102CA000394D0146394E0A3131D0394A1023D35EAD
:102CB00000213246203A9E46127916E06F18BC4633
:102CC0007F78012F14D04B0000939B199F89B84245
:102CD00009DD5F8AB84206DA009FF75BBE4502DD78
:102CE000012763465F70491CC9B28A42E6D812E0E8
:102CF0004B009B1900931F8BB84206DBDF8BB84259
:102D000003DC009FFF88BE45EDDA0027E9E70321D9
:102D1000681CFDF728FB002029184978012902D1F9
:102D200081402143CCB2401CC0B20328F4D31949DE
:102D3000002C1ED11648154A8038302533889288D9
:102D4000455F0A320A339D420ADD2827C75F974252
:102D500006DD2A27F688C75F0A36B74200DD03245E
:102D60009D4206DD2423C35E934202DD05244C70A0
:102D700002E04C70002C03D0087801221043087048
:102D8000F8BD0000B01000201007002090060020C1
:102D900078100020D10700200022CB070AD0501E57
:102DA00070470378891E9A18437889B21B029A18D3
:102DB00012B2801C0029F4D110467047F3B50546C5
:102DC00082001248002117180C461148F96069006A
:102DD0000E1816E0B0890F4B4000C0186300C018F1
:102DE0000D4B4919C0184B78D2B2019900F0ACF8DC
:102DF000FA680649824202DAF8604819C470641C15
:102E0000E4B2F2890249A242E4D8FCBDB01000202D
:102E100070060020400000207A040000F3B51B4833
:102E200081B00C460023019D0022194E64277D438A
:102E30001146AD190EE03126761AF61A7700361BC8
:102E40007600EF19AE19FF89F689BE1BB218491C2E
:102E500012B2C9B2A142EED3824200DA10465B1C24
:102E6000DBB21E2BDFD3FDF7A9FF0199094A8900C8
:102E70008918C96F02F0ECFDFDF73EFF214600B254
:102E80006143FDF77EFA00B2FEBD0000FF7F000047
:102E90005E0B00204000002010B51446094A49008E
:102EA00089180B22D2018A182021515E064A80001F
:102EB00080188068FDF765FA80106043801300B2C7
:102EC00010BD000040000020B0100020F3B5054602
:102ED00019491A484A5D81B0105C0A225043C4B2B5
:102EE00068004618318920462330814200D20846C6
:102EF000C7B213480021AA0010180090816018E0A2
:102F0000F088104A40000C49801862008018491966
:102F10004B78327A9830029900F016F8009A0849F6
:102F20009268824203DA009A906048198470641CA7
:102F3000E4B2BC42E4D3FEBD70060020F90F0020CD
:102F4000B010002040000020F0B5054600200446E7
:102F5000520009E0002600278E5FEF5F641C7E436D
:102F600030185519E4B2891C9C42F3D3F0BD00001F
:102F700010B50748418807480288914203D1064AA4
:102F80005268914203D00180002000F027FD10BD5F
:102F9000DC06002000150020000001400021064A48
:102FA000012801D0D1607047044841700449642071
:102FB00008810448D060704700150020340B0020C1
:102FC000280E0020E093040070477047704700000F
:102FD000F8B502F043FB094F094E00246500E819DB
:102FE000008900F09BFBA9194A780C231A40104372
:102FF000641CE4B24870082CF0D3F8BD180000201F
:103000009A070020FF210331484310B506494418B0
:10301000A01C00F065FC012803D0A07001206070A6
:1030200010BD1E20FBE70000F810002070B5FF2146
:10303000033148431B49002645186878AC1C00281A
:103040002FD1072000F0B0FAFFF792FF1648008B4F
:10305000C04320801548A41CF100425A2280091860
:103060004A8862808A88A280C988E180761CF6B28C
:103070000834072EF0D30E490D4820310978C08B53
:10308000090208432080A41C601B801EC005000E9E
:103090004600A81C3146FFF77FFE40422080B61C48
:1030A0006E7070BDF8100020180000207808002015
:1030B00040000020FF210331484310B5084944185F
:1030C0006078012808D1A078A11C00F01FFC01281D
:1030D00003D0A0700120607010BDA078FBE7000055
:1030E000F8100020FF210331484310B5054944186A
:1030F00060781E2805D1A01C00F0D4FCA07001202F
:10310000607010BDF8100020FF210331484310B556
:103110000C4944186078A178884212D1A07806281A
:103120000FD9A01C00F006FDA070012060700648B9
:10313000E1788078401E884203D100F0D1FA00F097
:10314000A5FF10BDF810002070060020F0B5174A4A
:10315000002312180326164F194638189657407840
:103160000DE0471AFB185B1EDBB25F1EBE4204DC9B
:10317000C01A80190C46C5B203E0491CC9B2884286
:10318000EFD8167105215156601A002800DC081B83
:10319000012800DD547106215156681A002800DC10
:1031A000481B012800DD9571F0BD0000B010002023
:1031B0007006002070B52C4D0024FF2120460331FD
:1031C0004843295C402939D010DC30291DD006DC69
:1031D00010292ED014292CD020293FD129E03129C3
:1031E00017D0382919D0392938D11AE0F3292DD030
:1031F00006DC412926D0A42917D0F2292ED125E0BA
:10320000F42923D0F52929D125E02046FFF76AFFCC
:1032100024E02046FFF7F6FE20E02046FFF774FF8B
:103220001CE02046FFF746FF18E02046FFF7FEFEB1
:1032300014E0295C204601F09DFA0FE0204601F0E1
:1032400023FA0BE0204601F061FA07E0295C2046F2
:1032500001F08EF902E0204601F0D4FA641CE4B2D9
:10326000042CAAD370BD0000F8100020410010B556
:10327000084890230818084AC35E545E0748A41EF5
:103280000818A34202DA448A641C00E00024448245
:10329000535210BDF80F00200E070020B010002080
:1032A00010B5152801D9EE2010BD603080B200F0B5
:1032B00002F8012010BD10B500244002FEF770F89E
:1032C000002800D00124204610BD70B5152804D870
:1032D00001258C186D02AC4201D9EE2070BD603022
:1032E00080B200F009FA012070BD70B5152804D82D
:1032F00001258C186D02AC4201D9EE2070BD603002
:1033000080B200F002FA012070BD0000F8B5002084
:103310000F4D104F288004460126381900790028E7
:1033200011D02046FFF764F961004A190220105EAF
:10333000032803D088402988084303E028883246C0
:103340008A4010432880641C2406240EE5D0F8BD72
:103350008C0E00207006002010B50A490848C86489
:1033600007490020891E012364220C1823714400A0
:103370006418401C0006E280000EF6D010BD00006C
:103380008E0E0020D8070020F8B51F4F0024387893
:103390000A2837D31D4D61001D48CA19405A52886A
:1033A0004E19801A00B2F082FDF708FD1949A200FB
:1033B0005118C96F02F04CFBFDF79EFCB08420460B
:1033C000FFF726F84036641CE4B2B083072CE2D342
:1033D0000024114F6E1C2046FFF764FA2046FFF7C9
:1033E000C9FA2046FEF778FF385D815D0818400075
:1033F0006100401949198031641C808C24060882C0
:10340000240EE8D0F8BD0000980E0020F80F002030
:103410005E0B002040000020700600200348024997
:10342000C1620E39416270471C100020D80700208D
:103430000146054A0020135C8B4204D9401C00065B
:10344000000EF8D000207047700600200CB504A2D2
:1034500006CA0091400801926946085C0CBD000054
:1034600014131211100F0E0D08B5002269460A80C0
:1034700004496A46095C0448FDF7F7FE6946088876
:1034800008BD00001800002000000E4010B50A48DA
:103490000168012292059143016007488038016864
:1034A0004908490001600548016B8022914301638E
:1034B0000348FDF7CBFE10BD00010E400020005078
:1034C00000000E4010B50A48016B802211430163D1
:1034D00008480168D203114301600648803801683A
:1034E0000122114301600448FDF7B7FE10BD000042
:1034F0000020005000010E4000000E4008490A0460
:103500000B050028086804D01043086008681843B9
:1035100003E0904308600868984308607047000023
:1035200000010E40F7B515460024114F1DE011496A
:10353000388B49880840E040C00703D10E48C07A64
:1035400000280BD02046FFF78FFF009966008853B4
:10355000204600F055F80199885304E00120C0028C
:10356000009962008852641CE4B2AC42DFD3FEBD15
:103570001800002000150020340B0020F8B50D467F
:1035800006460024074F0AE038198078002804D145
:103590006000315A204600F03FF8641CE4B2AC42AF
:1035A000F2D3F8BD340B0020F8B5002407462546B9
:1035B000FFF788FF14E010480619B07EFEF70CFCF8
:1035C0002046FEF783F80090B07EFEF7FFFB0098E0
:1035D000002803D10120A040284385B2641CE4B236
:1035E000BC42E8D3FFF752FF034804490583E84390
:1035F000087000124870F8BD1800002096070020DF
:10360000044A0349105C8000085A80B270470000E9
:1036100064010E4018000020034B024A185C800031
:103620001150704764010E4018000020F8B5294978
:103630000620085E0125002833DC002426482946A0
:103640004078A14008421ED02448660037183889C7
:103650000121FDF7DFFF38890021FDF7F7FF1F4843
:103660000838815B002919D1855301214E0230466B
:10367000FDF7D0FF00213046FDF7E8FF1749002095
:10368000103948600AE015486600301800890021AA
:10369000FDF7C0FF1148002108388153641C032C3A
:1036A000CCDB0E4E0024083E3746083F6000315AFE
:1036B00000290AD0491C89B23152072905D10120BD
:1036C00000214002FDF7A6FF7D60641C032CEDDBAA
:1036D000F8BD000000150020D107002018000020D0
:1036E00010B500F057FA034800F0B0FA00F096FA6F
:1036F00010BD0000D800002010B51446400240184C
:103700001A462146FDF7A6FE10BD10B5144640022C
:1037100040181A462146FDF7D7FE10BD70B5064683
:10372000FDF732FF04463046FDF768FF0546002CE2
:10373000304607D0FDF756FF29010143A0010143A0
:10374000C8B270BDFDF736FF0128F5D03046FDF751
:103750003DFFF1E707494A78087812028018401CBB
:103760000870020A4A7001221204101A8870000AB6
:10377000C87070472E07002070B51048006B104DC0
:10378000400602D52878401C28702878022814D9D1
:10379000FEF7DEFA0B4CA068FF2601363043A0602E
:1037A000FEF7E0FAFEF7D4FAA068B043A060FEF797
:1037B000D9FAFEF751FC0020287070BD400002408D
:1037C000000000200024005010B5FEF745FCFEF775
:1037D0003DFCFDF7AFFEFDF745FFFEF79DF8FEF758
:1037E00066FCFDF75BFDFEF780FC10BD10B50648DA
:1037F0008900036807248C40A343036003688A4060
:103800001343036010BD000000010E40F8B51E48D0
:10381000FDF7A2FE01210320FDF7FCFE002103209D
:10382000FDF714FF00217020FDF7F4FE01200021B8
:103830004002FDF7EFFE0020144902464300401C01
:10384000CA520428FADB124E0024104865000830E2
:103850002F183889FFF712FA70550420AD196870D7
:103860003889FFF75BFF69780C2211400843641C1C
:10387000E4B26870082CE8D30448064A0649C83008
:10388000FCF714FDF8BD00007C0D000010000020C6
:103890009A070020E2030000445B000010B50E4CC4
:1038A000207800280FD0012810D002280AD1FDF777
:1038B0004BFD0A4960880988401A0004000C6080AA
:1038C00000D1207010BDFDF7FDFC10BD7D20000172
:1038D00060800220F5E700000200002000150020B3
:1038E00070B504460346EE251E2200211520FFF781
:1038F000ECFC1E212046FFF74FFA002804D1207867
:103900006178084300D00125284670BDF8B5074608
:10391000C007C60D0D4601243846FFF797FD0090FD
:103920003846FFF785FD07462B46220231460098B0
:10393000FFF7CBFC094A78008018008929784200FB
:10394000081F824200D003242846FFF725FA0028EA
:1039500001D0042004432046F8BD0000700600207A
:103960000EB5FEF73FFA0090FEF742FA0190FEF71F
:103970006DFA0290FEF71AFA042269460748FCF72E
:1039800095FC0648042201A9001DFCF78FFC0422C7
:1039900002A90348FCF78AFC0EBD00004207002084
:1039A0004C07002010B5FEF7B5FAFEF79BFA002889
:1039B000FBD1FEF751FA06490988081AFDF7FEF90E
:1039C0000449FDF7E9F8044901F0D2FF10BD0000F9
:1039D00006000020000070420000204110B50C4697
:1039E000002806D00120FEF7E7FA2046FEF7D6FAB7
:1039F00010BD0020FEF7E0FA2046FEF7C1FA10BD28
:103A0000F8B5074621482249008B4988002408421E
:103A100003D12048C07A002836D01C4D203531E033
:103A20001A4E1B49308B49880840E040C00703D13B
:103A30001848C07A002823D030190090807EFEF705
:103A4000CBF9315D0120884081B21348FDF718FCA5
:103A5000114E803630680221884330600020A87003
:103A60000D48FDF710FC3068022108433060FDF777
:103A70006BFCA8780028FAD00098807EFEF7A6F9A3
:103A8000641CE4B2BC42CBD3F8BD00001800002097
:103A900000150020340B002000000E4010B5FEF78A
:103AA0005DFB10BD70B50446EE251E21FFF774F9CD
:103AB000002839D120786178084335D0FFF772FFAC
:103AC000FDF71AF919490123C883A077C88B0012A2
:103AD000E077887F4242204620300270C98B002266
:103AE000494209124170FF218170C17010498A5604
:103AF000CB56DA420BD10978322908D2002906D0F8
:103B00000A4920310A70827009784942C170152033
:103B1000FFF7C6FB2346242200211520FFF7E5FB13
:103B2000204601F07BF90125284670BD40000020A9
:103B3000B0070020F8B546780546047801273046DE
:103B4000FFF776FC12494000401800894100201F11
:103B5000814201D00320F8BD3046FFF777FC00908A
:103B6000F007C60D21462846FFF716F9002802D0B7
:103B700005273846F8BD002E02D10098FFF790FBCC
:103B80002B46224631460098FFF7AFFBF1E70000D5
:103B900070060020F8B51E4F1E203D46F8832035E4
:103BA0002870EE261B4B242200211520FFF78DFBE9
:103BB0001E211848FFF7F0F8002826D1154C207870
:103BC0006178084321D0204601F028F920460126DB
:103BD00004211E30FFF7E0F8002804D1E07FA17F28
:103BE00000024018F8830B490222203103208A5634
:103BF0000856C24209D18878322806D2002804D05B
:103C00002A70054A1070C87850703046F8BD000020
:103C100040000020B0080020B007002010B5094B7C
:103C2000802200210C20FFF750FB80210548FFF780
:103C3000B3F8002804D1802202490348FCF736FB80
:103C400010BD0000B0080020B00A0020F1B58AB015
:103C500001200790002004460390234861000E18BD
:103C60003189002939D0F18800250719059131E003
:103C70000398FFF7EBFB0399FF22C907C90D1B4B04
:103C80000132FFF722FB194800780090308941008B
:103C90000098001F814205D114480099FFF77CF875
:103CA000002802D0EE20079017E00598009A410006
:103CB0000A98121F08180D49891CFCF7F7FA039897
:103CC000401CC0B2039031890598081880B26D1C61
:103CD000EDB205907878A842CAD8641C2406240E58
:103CE000BBD007980BB0F0BD70060020B0080020D4
:103CF00010B501F073FB01F0E1FBFFF75BFA10BDBB
:103D0000F0B5064600200146184F2CE04A00BB5E85
:103D100006220C465443164AA5181222AA5E934264
:103D200001DD9C1A00E0D41A0F2C18DC10242C5F43
:103D3000A24201DD121B00E0A21A0F2A0FDC0E22A4
:103D4000AA5E944201DDA41A00E0141B0F2C06DCCD
:103D5000934201DD9A1A00E0D21A0F2A01DD0120F8
:103D6000F0BD491CC9B2B142D0D3F0BD4000002023
:103D7000460E0020FFF728FD0720FFF715FCFFF790
:103D800045FDFFF7ADFC00F081F901F059FCFFF7AC
:103D9000E7FDFFF71AF91F4801880020FFF71EFE14
:103DA0001D4C1E4E1E4D002760780128FCD1677007
:103DB000FFF774FEFFF7CEFCFEF738FFFFF708F9B8
:103DC000FFF780FB0720FFF71BFEFFF75FFB1448A0
:103DD000072229460E38FFF7A5FB1148072229467E
:103DE0000E3800F09FF90E480E3800F083F90721D5
:103DF0002846FFF7C3FB30780028E1D0FFF778FFB3
:103E000001F018FCFFF712FCFFF7B6FCFFF746FDC8
:103E1000CAE700000015002038000020340B002005
:103E20004E000020F0B58FB00021624A0C911118AD
:103E30000B91497840008418E0894B1E06904B4353
:103E40004000834270D100201BE05B4AE388944627
:103E50002289164642439A1895B200220DE0574F28
:103E60006B00DF199823FB5E634502DD09AF9C46BA
:103E70003A546D1C521CADB2D2B29642EFD8401CDF
:103E8000C0B28142E1D8002041E0401C0E90C0B297
:103E9000864638E0039B09A8C35CE2887546405D0E
:103EA000D318101882B2A5890C989BB2281880B23A
:103EB000844600201DE0414D5E00751980352E8B33
:103EC0003E4D57007D1980352D8B7519664677005C
:103ED0003A4EBF191126B601BE197587069D654475
:103EE000ADB2AC462589EB18AA18401C9BB292B221
:103EF000C0B28142DFD87046401CC0B286460C98E2
:103F0000401CC0B20C907145C4D80E98C0B203904A
:103F10008142BAD8002546E0A189002049190B9BAF
:103F20008AB201465B780EE041E05700234E6244BE
:103F3000BF191126B601BF193A26BE5F92B2764369
:103F40003018491CC9B28B42EFD8FCF7CCFC01F009
:103F5000CFF9FCF7BDFA0690A089401987B2E08935
:103F600004900B9800264078029018E013487900DE
:103F700009181120800109183A200791085E800372
:103F8000FCF71CFF0699FCF707FEFCF7B5FE079946
:103F900048870498C01987B2761C0298F6B2B042DE
:103FA000E4D86D1CEDB2E0898446A842B4D80FB0C5
:103FB000F0BD0000700600200080FFFF40000020E0
:103FC000F0B52F498BB00A1800244000451808921C
:103FD0004FE0E98800200919089B8AB201465B7806
:103FE0000AE05700274E6244BF199826BE5F92B27E
:103FF00076433018491CC9B28B42F2D8FCF773FCE7
:1040000001F076F9FCF764FA0290FCF775FE698A14
:1040100009194A001B4951180B22D201891808843A
:1040200019490298884222DBE888001987B208986B
:104030000026407803902889049015E01148790003
:104040000918803118200991085E8003FCF7B6FE3C
:104050000299FCF7A1FDFCF74FFE0999088304982B
:10406000C019761C87B2F6B20398B042E6D8641C39
:10407000E4B228898446A042ABD80BB0F0BD000062
:10408000700600204000002000009643F8B5154956
:10409000002008704872887200F0FCF9FFF75CF9A4
:1040A000FEF7CCFDFFF7BAF901F0F4FB00F0A2FC3B
:1040B00001F0E0F801F0C6FB0B4E0C4F0C4D002454
:1040C000A0008019006E394601F0C2FCFCF73AFEF0
:1040D00061006854000A4919641CE4B24870072C56
:1040E000EED3F8BD340B00204000002000007A44DD
:1040F0007207002010B50A49097801290FD100F094
:104100009FF9FFF741F9FFF701F9FEF7A3FD01F071
:10411000ABFB00F04DFCFEF7BFFD01F03DFB10BD19
:10412000340B0020F7B518481546828B00240E4644
:10413000642A01D8521C8283144F797801291CD13A
:1041400090B2642819D91248018800290BD1C0887F
:10415000322808D32846FFF7D3FD002803D10D48A5
:10416000C068002809DD0120387008E02246314689
:10417000009800F0FFF8641CE4B2AC42F6D300985B
:1041800000F01CF8FEBD0000280E0020340B0020BB
:104190008C0E00200015002010B507490123DB021A
:1041A0000978C21A002A01DD104600E0181AFCF74F
:1041B000E8F800B210BD0000280E0020F8B5534FFB
:1041C00005467889421C7A81142803D95048012178
:1041D000017003E04E48007801283BD1002179812D
:1041E0004B4938464978002938D1192149010181C4
:1041F0008189491CB98100242946204600F04AFFE4
:10420000424960001E310A5A2B5AD21A43181A87A3
:10421000062300226343591856008E19521C2B5A4C
:10422000D2B2F381032AF7D33A4942180E21515EE4
:10423000394A914202DD521C8A1A00E04A4237494B
:10424000641C0A5412124018E4B24270072CD3D3F3
:1042500000F0F8FB2E480078002854D000242B49A9
:10426000062060431E314618308AF081708A67004C
:104270003082E85B708200221046410073180E21E4
:10428000595E401C8A18C0B20328F6D30321104699
:10429000FCF777F801461D481E303A18128F89182E
:1042A000C15312211022715EB25E881A002800DC10
:1042B000501A1B4928220988514388421BDD19489E
:1042C000C079C043400716D5012300205B020427B4
:1042D000154A41008A188032568A1E435682134E70
:1042E00000228E197280124A401C565A00063E4324
:1042F0005652000EECD0641CE4B2072CAFD3044835
:1043000001784170F8BD64213981F8E7280E00205A
:10431000340B002040000020FF070000620700204F
:104320000015002038000020F80F00208C0E00201F
:10433000400B002070B50D465400095F0126F602BF
:10434000005FB14209DBFFF727FF295B081A00B2C3
:104350002853B0420BDA002008E0FFF71DFF295B6D
:10436000401800B22853B04201DB0148285370BD09
:10437000FF070000F8B58C461F4901270F7016464D
:104380005100425E1D49FD020B89002459191A4D46
:10439000AD198A4206DD0021A97032466146FFF759
:1043A000C9FF0CE00121C902C91A8A4206DA0021BC
:1043B000A9703246614600F023F800E0AF700F4864
:1043C00080194178491CC9B241700A2901D3AF70E4
:1043D00002E0A978012901D10021417006480219A3
:1043E00001789278114000D00121641CE4B2017080
:1043F000072CF4D3F8BD0000340B0020280E002059
:1044000070B50D465400095F0126F602005FB14207
:104410000BDBFFF7C1FE295B401800B27100285387
:10442000884201DB481E285370BDFFF7B5FE295BAB
:10443000081A00B228530128F6DA2E5370BD000086
:10444000F8B50024642010496043471839461031FC
:10445000881E6222FBF72AFF0C486600855B403706
:104460000B483D86A1000F18B96A386E01F0F0FACA
:10447000796C01F0EDFAF8670348641CE4B28553E7
:10448000072CDFD3F8BD00005E0B0020460E002095
:104490004000002010B51749174A002043009B1820
:1044A000401CC0B219870728F8D30021134B144AC7
:1044B00008464C005854A418491C09066080090E8F
:1044C000F7D010800C4A00211E3A5318491CC9B27B
:1044D00058700729F9D390836420108163201070ED
:1044E000094808494161094941600E31C1600E31F6
:1044F000C16610BD00F8FFFF460E0020980E002098
:104500008C0E00205E0B0020D80700204000002009
:10451000FF21033148430449411804480160012147
:10452000C171017270470000F8100020EC100020EB
:10453000FF2103314843044941180448491C0160E4
:104540000121C17101727047F8100020EC100020A9
:10455000FF2103314843044941180448891C016084
:10456000FF21C17101727047F8100020EC1000208B
:10457000F8B50F46FF210331484337490026451857
:104580006878AC1C002865D1F42F09D17D2033490F
:10459000C000C8808880324900204880FEF7E8FCCF
:1045A0003048407820803048A41C7100415A218056
:1045B000761CF6B2A41C072EF7D300262B48B100B8
:1045C0000818C06F2A4901F043FAFCF795FB2080D8
:1045D000761CF6B2A41C072EF0D326490020420018
:1045E0005218928C2280401CC0B2A41C0728F6D31B
:1045F0002148234A00882080204801890020105E3D
:1046000064225043FBF7BDFE184E6080706AFCF7D1
:1046100073FB41B230462030B27F0078101A00029E
:104620000818A080A41D601B801EC005000E460057
:10463000A81C3146FEF7B0FB40422080B61C6E70CD
:10464000F42F01D0F32F05D10E486978002901D04D
:10465000401EFAD2F8BD0000F8100020001500201E
:1046600072080020D10700205E0B002040000020CF
:1046700000007A44F80F00208C0E00207006002005
:10468000B0100020400D0300F8B5FF23033358435A
:104690001B4B0021C41860780A4600282FD148001F
:1046A0000B18184818188078012818D1164B0020CC
:1046B000CD00EB189E469D780FE0734647005E687C
:1046C000BC465300F75DE3189F706746F65B3612F1
:1046D000DE70521C401CD2B2C0B28542EDD8491CDB
:1046E000C9B20E29DBD35500A01C2946FEF754FBA6
:1046F000404261198870000AC870AD1C6570F8BD31
:10470000F810002048080020D8070020F8B5FF2343
:1047100003335843144B0021C41860780A4600281C
:1047200021D1124E12484B00CB189B199B78012BBC
:1047300009D1CD002B185F785300E3189F70455DB9
:10474000DD70521CD2B2491CC9B20E29EBD3550000
:10475000A01C2946FEF720FB404261198870000A20
:10476000C870AD1C6570F8BDF81000204808002026
:10477000D8070020F8B500252F462E46102904D072
:10478000142905D0202903D101E0022700E00527E4
:10479000FF2103314843184944186078002829D183
:1047A000FEF7E6FB1549FA00887C51188C460DE0AF
:1047B00061464B686A0071009F5C61188F709A5A5D
:1047C0001212CA70761C6D1CF6B2EDB2A842EFD878
:1047D0007500A01C2946FEF7DFFA40426119887077
:1047E000000AC870AD1C657005486178002901D0C9
:1047F000401EFAD2F8BD0000F8100020D8070020B3
:10480000400D0300F8B5FF21033148435849002605
:1048100045186878AC1C00287ED17D205549C00021
:10482000C88088805448574F407820805348564964
:104830000088608052480088A0803888E080C8786E
:1048400089780002084340BA20815048008B60817B
:104850004F488089A0814F4840684F490014E0814B
:104860004A482830C08B2082484812342830406A99
:1048700001F0EEF8FCF740FA2080A11C00240C8027
:104880004C80091D414800912830006E434901F0D9
:10489000DFF8FCF731FA0099088000993B48891C41
:1048A00000912830806A3D4901F0D2F8FCF724FAE3
:1048B00000990880009902204C808C803856C8806E
:1048C000B88B0881042038564881F88B8881388A53
:1048D000C8813348007A08824C828C820C46314869
:1048E00016347100415A2180761CF6B2A41C072EA2
:1048F000F7D32D4900204200521852882280401CD4
:10490000C0B2A41C0728F6D32549002080394200F4
:104910005218928C228000E028E0401CC0B2A41CF7
:104920000728F4D3194F00262837B000C019C06FEC
:104930001A4901F08DF8FCF7DFF92080761CF6B2F9
:10494000A41C072EF1D3601B801EC005000E410081
:104950000E46A81CFEF720FA40422080B11C697068
:1049600012486978002901D0401EFAD2F8BD000033
:10497000F810002000150020D10700208C0E002028
:104980008C100020B01000205607002018000020D6
:10499000280E0020004000500000204100007A4412
:1049A000781000205E0B0020980E0020400D0300C0
:1049B000F8B500240C4F09250C4EED436000C119D9
:1049C0004988002908D00A4941180989002903D0DB
:1049D0002046FDF7F5FF02E0355230190571641CE1
:1049E0002406240EEAD0F8BD8C100020B010002060
:1049F00070060020F8B50F480D4D002409260E4F13
:104A0000F643C56360002E5229190E710B494019F7
:104A100081820B49C182078347832046FFF702FA50
:104A20002046FFF7CDFA641C2406240EEAD0F8BD18
:104A3000B0100020D80700205CCF0000D7A30000F2
:104A400056BD0000F0B50020184943005E1838221A
:104A5000B25E07210903541849008C4220D964240E
:104A6000134D0021444365194C002C19E789491C5A
:104A7000BF1AC9B2E7813229F6D30D49CC5AA41A1C
:104A8000CC520C495C186588AD1A658084006118A9
:104A90000C699202A21A0A610749C95A4942318730
:104AA000401CC0B20728CFD3F0BD0000460E002046
:104AB0005E0B0020980E00204000002004480349AF
:104AC0000160CA78C271097901727047D20600206C
:104AD000EC1000200448034901608A78C271C9784B
:104AE000017270475E070020EC1000200448034963
:104AF00001608A7BC271C97B017270477207002016
:104B0000EC1000200448034901608A78C271C9781A
:104B10000172704796070020EC10002004480349FA
:104B200001600A7BC271497B01727047C406002094
:104B3000EC1000200448034901600A7AC271497AE6
:104B40000172704738070020EC1000200448034928
:104B500001608A78C271C97801727047D706002057
:104B6000EC1000200448034901608A7BC271C97BB4
:104B70000172704762070020EC10002004480349CE
:104B800001608A79C271C9790172704756070020A5
:104B9000EC1000200448034901600A7CC271497C82
:104BA000017270479A070020EC1000200448034966
:104BB00001608A78C271C9780172704706070020C7
:104BC000EC1000200448034901600A7AC271497A56
:104BD0000172704742070020EC100020044803498E
:104BE00001608A78C271C97801727047520700204B
:104BF000EC1000200448034901600A79C271497928
:104C0000017270474C070020EC1000200448034953
:104C100001608A7CC271C97C0172704782070020E2
:104C2000EC10002010B5562870D033DC1B286ED055
:104C300017DC0B286DD007DC0300FDF79DFA075841
:104C40005B5E61EBEB64EB0010286BD004DC0C289E
:104C500062D00F286FD162E0162866D017286AD17B
:104C600066E029287DD00CDC242871D004DC1C28C7
:104C700066D01F285FD166E025286CD028285AD13D
:104C80006CE02E2875D0512876D0542877D055283E
:104C900051D17AE0ED286AD01CDCB52868D00CDC54
:104CA0005C286FD004DC572875D05B2843D175E0B1
:104CB00060287CD0AB283ED18BE0B82871D004DCD2
:104CC000B6287AD0B72836D17AE0B9287ED0EC2839
:104CD00031D181E0EE380300FDF74EFA10829C9C42
:104CE0008486889C9C8A8C8E9C9C9094989C00F0D6
:104CF00099F910BD00F07EF910BD00F01BF910BD50
:104D000000F084F910BDFFF715FF10BD40E014E07E
:104D1000FFE7FFF757FFF8E7FFF76CFFF5E7FFF74F
:104D20005DFFF2E7FFF72AFFEFE7FFF7D3FEECE7BF
:104D3000FFF718FFE9E76DE013E0FFF7BFFEE4E7D8
:104D4000FFF704FFE1E7FFF731FFDEE700E002E0F5
:104D5000FFF7CCFED9E7FFF759FFD6E7FFF7DEFEF6
:104D6000D3E7FFF7CFFED0E703E005E007E035E04B
:104D700020E0FFF70FFFC8E700F080F9C5E700F07B
:104D8000B5F8C2E710E006E011E000F0A3F8BCE7D8
:104D900000F05CF9B9E700F021F9B6E700F0B2F8ED
:104DA000B3E710E009E011E000F0B8F8ADE700F07B
:104DB00059F9AAE700F0CAF8A7E700F0D3F8A4E78A
:104DC00000F0DCF8A1E700F0E5F89EE700F0EEF86F
:104DD0009BE700F0F7F898E7002010E0002012E0D1
:104DE000002014E001200AE001200CE001200EE088
:104DF000022004E0022006E0022008E00320FFF782
:104E000087FB82E70320FFF793FB7EE70320FFF792
:104E10009FFB7AE700F012F977E70000F8B5074644
:104E20000024A600F019C178827809025118407850
:104E300009024018B95D00020D180C48854201D3E3
:104E40007D25ED002846FBF7B9FF0949FBF7A4FED5
:104E500008492A127118086661000748641C455405
:104E60000818E4B24270072CDBD3F8BD214E0000D5
:104E700000007A444000002072070020F0B5124B79
:104E8000124A195C181884781AE06420104B4843C1
:104E9000C3187020185E8D008302AD182B614B0083
:104EA0009D186880282300204B439E184300F31868
:104EB000401C6F88C0B29F851428F7D3491CC9B223
:104EC0008C42E2D8F0BD000070060020980E002051
:104ED0005E0B00200448034901604A78C27189785A
:104EE00001727047B4070020EC1000200448034909
:104EF00001608A78C271C97801727047B0070020DA
:104F0000EC1000200448034901600A7BC271497B10
:104F100001727047E4060020EC10002004480349A9
:104F200001600A7BC271497B01727047F206002062
:104F3000EC1000200448034901608A78C271C978E6
:104F40000172704734070020EC1000200448034928
:104F500001608A78C271C97801727047BD0700206C
:104F6000EC1000200448034901608A78C271C978B6
:104F700001727047C1070020EC100020044803496B
:104F800001608A78C271C97801727047C507002034
:104F9000EC1000200448034901608A78C271C97886
:104FA00001727047C9070020EC1000200448034933
:104FB00001608A78C271C97801727047CD070020FC
:104FC000EC100020044803490160CA78C2710979D5
:104FD00001727047D1070020EC10002004480349FB
:104FE00001604A78C271897801727047BA0700205F
:104FF000EC1000200448034901608A78C271C97826
:10500000017270472A070020EC1000200448034971
:1050100001600A79C2714979017270472E07002038
:10502000EC1000200448034901608A7AC271C97AF1
:10503000017270471E070020EC100020024800217A
:10504000C171017270470000EC1000200448034950
:1050500001604A78C271897801727047B7070020F1
:10506000EC1000200448034901600A79C2714979B3
:105070000172704700070020EC100020044803492B
:1050800001608A78C271C97801727047AC0700204C
:10509000EC10002070B54200124B0E24D318134DB3
:1050A0001C5F114E00235519B44202D0104EB44279
:1050B00015D1EC89641CA4B2EC81322C0ED3EB81A7
:1050C0000C4C0125238B8540AB432383D8430A4BEB
:1050D0001870001258700120C002885270BDEB8118
:1050E00070BD000040000020FF070000280E0020D7
:1050F000FF0F00001800002096070020F3B50646B9
:105100003B4C80000719B86881B0001340430299F6
:10511000FBF737F90546F868029900134043FBF79F
:1051200030F902467D20C000684303147000011965
:105130008B837D23DB0053431B14CB832D4B275ED6
:10514000C318A41980330A3711D08F8AAF4249DDC2
:105150000927274DFF432F52488B90421CDA10201D
:10516000185E642818DD3046FDF7F0FF14E00427D0
:10517000E7570A3719D00F8B1D4E974203DC1022D8
:105180009A5E462A10DA0922D2432271C98AA942BC
:1051900002DA022161563152042020560A3003D12E
:1051A0000920C0436071A071FEBDCF8AAF4207DA0B
:1051B0000F490222A2560A520F4900200870EBE75D
:1051C000488B90420ADA1020185E642806DD0A49EE
:1051D0000878421C0A700A28C5D8E1E70649002071
:1051E0000870DDE702490222A2560A52D4E7000005
:1051F000B0100020F80F00200C070020F7B50E4675
:10520000002482B0154621460FE002984A00805ED5
:10521000002801DD024600E04242A24203DD0028F0
:1052200000DC404284B2491CC9B2A942EDD3002738
:105230000BE0790002980091405E21460003FBF7E5
:10524000A0F800997F1C7052FFB2AF42F1D3002149
:10525000084605E04200B25E52435118401CC0B2FD
:10526000A842F7D30913680031528019448005B071
:10527000F0BD0000F8B50A4E0024084D37460C3F3B
:10528000A0004219200181190C206043C019FCF7CD
:1052900075F8641C2406240EF2D0F8BD1407002013
:1052A000DC100020F8B5002401E00C55641C944289
:1052B000FBDB012519E02C460E5DB4465E4376000B
:1052C000B64602E0009E0E55641E002C0ADD7646AE
:1052D000875F0E19203EF67F00965E437600865F5C
:1052E000B742EFDC66460E556D1C9542E3DBF8BD18
:1052F000F8B506460C46FBF7E3FD051E0F4600D049
:105300000120014349000B484908411AC90F0DD03B
:10531000002E01D0012100E000210C43610049086A
:10532000401AC00F02D10120FBF77BFD2846394609
:10533000F8BD00000000F07FF8B520480178012991
:105340003BD11F491F4D09881F4C204F00291BD1FD
:1053500043881F498B4217D279882288914202D014
:105360006E688E4210D19B189BB2438018488342CE
:1053700013D3914202D0686888420ED11548C07993
:10538000C00704D0F88803E00021418005E0B88818
:10539000208081B20020FEF721FB7988208881429D
:1053A00002D16868814208D00B481022825E322AFE
:1053B00003DD21800020FEF711FBF8BD72080020FC
:1053C0008C0E00200000014000150020DC060020AB
:1053D000881300003800002078100020F8B5324C07
:1053E000324F20780025324E002847D0617841188E
:1053F0000906090E42D140282DD010DC12281FD0FA
:1054000006DC012838D0102836D0112836D133E0F8
:10541000132819D030281BD031282FD118E082282A
:1054200016D006DC412821D0802811D0812825D132
:105430000EE083280CD084280AD085281ED107E0EE
:105440000120FDF7ABFD0EE00020FDF7A7FD13E006
:10545000FDF7BAFD10E00120FEF750F8FFF71AF84B
:105460000120F072FD60FDF783FD05E00020FEF7EE
:1054700045F8FFF70FF8F57225706570F17A0D4861
:1054800000290ED039880288891889B201800A481B
:10549000814205D90020FEF731F8FEF7FBFFF572D7
:1054A000F8BD0580F8BD000034070020001500207D
:1054B000340B00201C070020581B0000F8B53F4F9C
:1054C00000213878002818D07A7882181206120E37
:1054D00013D13B4A60285DD02CDC56283ED00DDC31
:1054E00051282CD0552808D136490A783649CA7136
:1054F000FDF76CFD002038707870F8BD5B2832D065
:105500005C28FAD1314C8800051968782B780002A4
:1055100018434B009B189881401E1883E878AD789B
:10552000000228435882401C491CC9B2D883032971
:10553000E9D3DFE70146B5390429DED8D8E7244AA4
:10554000244B107852781202801880B24A00D21888
:10555000491C09065080090EF8D0CBE71E481F49A8
:1055600000780870C6E71E4E8800851968782B7889
:10557000000218434C001053EB78AD781B022B430C
:10558000984200D20346A018491CC9B2C38003291F
:10559000EAD3AFE7134B8800C51868782C7800026F
:1055A00020434C00A4182086E878AD7800022843F8
:1055B000491C09066086090EEDD09BE72A070020EA
:1055C00090060020B407002038000020F2060020DA
:1055D000AC07002018070020B70700207208002041
:1055E000E40600200007002010B50F4C23786078F7
:1055F000834217D00D490E484A88012B06D0022B52
:1056000004D0032B04D0042B06D103E0028003E076
:10561000898800E0C988018001880020FEF7DEF952
:105620002078607010BD000072080020DC060020A9
:105630000015002010B5FFF7D7FFFFF77DFE10BD66
:105640007D210448C900C180418803480180FF21B1
:1056500041807047DC06002000150020F0B542486C
:1056600089B0018841480288891889B27D221201D7
:105670000180914275D900210180FEF793F9FBF773
:1056800061FA3B4A3B4BFBF739F9384C0546383455
:105690000E46606AFBF756FA374A384BFBF72EF98D
:1056A0002A463346FBF7CEF8FAF712FF054660624A
:1056B0001E20205EFBF782FB294600F04DFA0025F4
:1056C0000190AA002E4806928058019900F0C0F976
:1056D0000146009000F0BCF90790009900F0B8F97D
:1056E0000446009900F0B4F92649FBF755FA07463D
:1056F00020462549FBF750FA06460021C943079882
:10570000FBF768FB04467F21C905009800F030F9DB
:10571000214600F02DF9314600F02AF9394600F013
:1057200027F91249069A383151188862174900F052
:105730008FF9FBF707FB6A0015496D1C51180871BA
:10574000000AEDB24871072DBBD308481149383023
:10575000406A00F07DF9FBF7F5FA0D490870000A80
:10576000487009B0F0BD00000015002008000020BE
:105770009A9999999999B93FCDCCCCCCCCCCEC3FA6
:10578000285F00000000C0410000C04000007A44D3
:105790008207002000002041F8B5254F254D002646
:1057A0007400E1194888002805D12348201880306A
:1057B000408A000A19D021482B88025BD21892B285
:1057C000025320184088824212D9002048801C4889
:1057D0000822015B114301533046FFF74FFB164887
:1057E00020188030817C418202E014490020085357
:1057F000761C3606360ED3D00620285E002802DD41
:105800002988401AE8800420285E002802DD2988C3
:10581000401AA8800820285E002802DD2988401A46
:105820002881E868002802DD2988401AE860F8BD70
:105830008C0E002000150020F80F00201807002013
:10584000400B002010B500200549064C03464200DD
:105850008B525218401C00065480000EF7D010BD29
:1058600018070020E02E000070B5094D00242C80A0
:105870002046FDF717F96100491949882888A14099
:105880000843641C24062880240EF1D070BD00005B
:105890008C10002002490148486570478E10002096
:1058A000D807002070B501250C002D051C4310D42D
:1058B000EC4206D4AC420AD4994200D070BD90426A
:1058C00070BDE94217D4EB4215D4994270BD8942AC
:1058D00070BDEC4206D5AC42F9D58B4200D070BD0C
:1058E000824270BD6D004C00EC4204D25C00EC4280
:1058F00001D28B4270BD034C30B4FBF799FA30BC37
:1059000070BD00BF1900160470B501251C002D05DF
:105910000C4310D4EC4206D4AC420AD48B4200D0E3
:1059200070BD824270BDEB4217D4E94215D48B4260
:1059300070BD9B4270BDEC4206D5AC42F9D5994290
:1059400000D070BD904270BD6D005C00EC4204D28E
:105950004C00EC4201D2994270BD0FB4034C0CBC18
:1059600003BC30B4FBF764FA30BC70BD19001604F8
:1059700070B501250400ED074C4020D4441A01D233
:10598000001B0919C60D4B00F2B2FF2A29D01B0ECD
:105990002CD000020C02D31A2C43DC4028430519FA
:1059A00010D2280A02D3401C6D0611D0761EF605CF
:1059B0008019FF2A00DA70BDC00DC00570BD6940B6
:1059C00000F0DCF801200543C541521C761CE8E7D5
:1059D00064089C40C90161408900E7D10124A043CB
:1059E000E4E71B0E440200D0034870BD002AFCD13E
:1059F000C00FC00770BD00BF0000C07F01230200C0
:105A0000DB050A430DD4DA4203D49A4207D4884214
:105A10007047D84214D4D94212D488427047804289
:105A20007047DA4203D59A42F9D5814270475B004C
:105A30004200DA4204D24A00DA4201D2814270477F
:105A400010B5024AFBF7BCFA10BD00BF09001604EE
:105A500070B5420064414B005C41120E39D01B0E00
:105A600038D0FF2A3CD0FF2B3AD040024902400AEE
:105A7000490A060045184E43000A090AD21848434D
:105A8000ED017F3A0104731A4019190C4318990F5C
:105A900004D001215B0849075B1A521CD80904D3C2
:105AA000401CF50301D19D0607D0FF2A08D2D50579
:105AB00006D0E4072043401970BD0125A843F4E750
:105AC000002A01DCE00770BD2402FF202043C0054E
:105AD00070BD1B0EFF2A03D0FF2B01D0E00770BD65
:105AE000FF2645003606B54206D84D00B54203D81C
:105AF000D218FF2A00D0E7E7004870BD0000C07F41
:105B000001230A00DB0502430DD4DA4203D49A4292
:105B100007D481427047D94214D4D84212D481426A
:105B2000704789427047DA4203D59A42F9D58842D4
:105B300070475B004A00DA4204D24200DA4201D2E6
:105B4000884270474840414010B5024A4840FBF740
:105B500037FA10BD0900160470B50125ED0768403D
:105B600004004C4002D5694000F008F8FFF706FF3A
:105B700070B501250400ED074C4022D4441A02D22E
:105B80006C40001B0919C60D4B00F2B2FF2A4BD026
:105B90001B0E50D000020C02D31A2C43DC40A84349
:105BA000051B05D5AD0019D36D08761E521E37D0E2
:105BB000F605280A01D2801970BD70416D0603D028
:105BC00070BD6940FFF7DAFE9C4009026140490060
:105BD00001D0401E70BD0124A04370BD6D081DD0D2
:105BE00001202B0C01D12D0410302B0E01D12D02E0
:105BF00008302B0F01D12D01001DAB0F01D1AD00DD
:105C0000801CEB0F01D16D00401C6D00361A121A7A
:105C1000680AF5054019012A02DB70BD002070BD3D
:105C2000C036300AC00770BD1B0E440201D1FF2BE5
:105C300000D1024870BD002AF0D070BD0000C07FC6
:105C4000FFFFFF000004000400040004000400043F
:105C5000000400040004D0032503A0022002B601C2
:105C60004A011D01B0007D004300E9FFB3FF8FFF33
:105C700071FF58FF57FF3DFF18FF0DFFFAFEEFFEC3
:105C8000F1FE1FFF2EFF4BFF2DFF55FF65FF5DFF50
:105C90004EFF52FF57FF7EFF7FFF7AFF87FF9DFF7A
:105CA00097FF8BFF97FF93FF8AFF88FF99FFA6FF5F
:105CB000BBFFBCFFB3FFB1FFBEFFB3FFB7FFAFFF3A
:105CC000C9FFCAFFC7FFCDFFCDFFCFFFC5FFBEFF96
:105CD000A3FF9E00C000F9004001A501FD016B0279
:105CE000EB02770300040004000400040004000435
:105CF0000004000400040004A203F9026E02F20191
:105D000088013D01F900990068002E00ECFFA9FF11
:105D100088FF72FF6DFF3BFF57FF41FF39FF15FF03
:105D200019FF12FF39FF42FF4DFF52FF65FF69FF68
:105D300061FF63FF5CFF52FF5CFF76FF7BFF95FF17
:105D400096FF91FF9AFFA8FF9FFF9DFF9FFFADFF6A
:105D5000BCFFBCFFC1FFBAFFBDFFB6FFB4FF8DFFA4
:105D60005FFF6AFF80FF8DFF9CFFB9FFC0FFDCFF74
:105D70000E0027007100A300F10032017201D90169
:105D80003A02D3028B030004000400040004000460
:105D90000004000400040004000400044B038A0211
:105DA0000F029F013E01EC008E0047001300D6FF5A
:105DB000A4FF8DFF74FF53FF4FFF47FF43FF37FFE3
:105DC0002FFF29FF10FF1BFF30FF46FF6BFF63FF14
:105DD00065FF6EFF72FF71FF6FFF82FF93FF9EFFF3
:105DE000A0FFA7FFB0FFA8FFA0FF9EFF8EFF83FFCD
:105DF00080FF93FF87FF70FF78FF66FF54FF45FF2A
:105E000037FF34FF46FF51FF5CFF53FF66FF6CFF17
:105E100083FFAAFFD0FF11004F009500D4001801A6
:105E20006701AB015102FB02CE0300040004000431
:105E300000040004000400040004000400049503AE
:105E4000D2022C02B9014301F600B10072002B000E
:105E5000E1FFA1FF68FF49FF34FF41FF1EFF0DFF77
:105E600001FFEEFEE7FEE3FEF2FE0DFF20FF31FF35
:105E700033FF30FF31FF26FF0FFFD5FEC6FFC9FFFE
:105E8000D3FFC5FFB9FFBCFFB1FFA3FF9EFF8DFF8E
:105E900087FF86FF7DFF81FF76FF73FF65FF4FFF62
:105EA00033FF21FF32FF44FF52FF51FF66FF65FFC2
:105EB00065FF86FFA4FFCEFF0A0053007800B800FC
:105EC000E1005801AB014702C3028E030004000445
:105ED00000040004000400040004000400040004A2
:105EE00000046903C0024102DA0166011301C20025
:105EF0007F003D000100D5FFB0FF9DFF82FF72FFD4
:105F000053FF31FF0DFFE0FE8FFEDBFFDAFFE2FF04
:105F1000D7FFD5FFD6FFD2FFC9FFC6FFB5FFB7FF3A
:105F2000BFFFB4FFBAFFB4FFAAFFA4FF93FF84FF33
:105F300071FF74FF7DFF7CFF7AFF7FFF72FF65FFBB
:105F400055FF43FF37FF30FF46FF4BFF5DFF56FF16
:105F500071FF86FFA0FFBFFFD5FF0D005700920025
:105F6000CB0011015C01AD01100291022203CB03B1
:105F70000004000400040004000400040004000401
:105F8000000400046C03F3028A022602D6017901A0
:105F90002101B2005800D7FFE5FFE9FFE9FFEBFF61
:105FA000DEFFEAFFDCFFCFFFD2FFC3FFCCFFD6FF4F
:105FB000CFFFD4FFC6FFC7FFBBFFBEFFA4FFABFFF1
:105FC0009EFFB6FFADFFB3FFB2FF9FFF9AFF8EFFAC
:105FD00085FF7FFF70FF83FF7BFF77FF93FF60FFED
:105FE0006EFF68FF64FF28FF2BFF48FF56FF59FF35
:105FF00070FF8FFF93FFA5FFC2FFE3FF170055005F
:106000008D00ED0033018E01EB016D02DF027303A1
:10601000F20300040004000400040004000400046F
:106020000004000400040000BE13333CEA784C3C3A
:10603000603C833C80608E3C603C833C80608E3C56
:10604000000000008182838485868788898B8C8DFF
:106050008E8F919293959697999A9C9D9FA0A2A3BB
:10606000A5A7A8AAACAEB0B2B3B5B7B9BCBEC0C202
:10607000C5C7C9CCCED1D4D7D9DCDFE2E6E9ECF094
:10608000F3F7FAFEA45F000000000020780800008B
:10609000421000004864000078080020F81000005A
:1060A0000401000041E7D007546FD007100807062D
:1060B000050403020112101220D2401A0101042526
:1060C0000404041A19024123C8410B32803F04180A
:1060D0000CD7A32040AE47E13F3333D30CC80ED0DA
:1060E0003FB81EC53F14AEC73FCDCC2C970110EA78
:1060F00004021010D0032503A0022002B6014A01B9
:106100001D01B0127D1243182AE9FFB3FF8FFF7102
:10611000FF58FF57FF3DFF18FF0DFFFAFEEFFEF19E
:10612000FE1FFF2EFF4BFF2DFF55FF65FF5DFF4E4E
:10613000FF5220180E7EFF7FFF7AFF87FF9DFF979B
:10614000FF8B04180E93FF8AFF88FF99FFA6FFBB01
:10615000FFBC481CB1FFBE06180CB7FFAFFFC9FF5C
:10616000CAFFC7FFCD021CCFFFC51614A3FF9E12A6
:10617000C012F9080D104001A501FD016B02EB02F0
:106180007703A011100F04A203F9026E02F2018836
:10619000013D01F912991268122E1CECFFA9661E2E
:1061A00072FF6DFF3B84180A41FF39FF15FF19FF8D
:1061B00012081C42FF4D98180A65FF69FF61FF63D2
:1061C000FF5C0C18125CFF76FF7BFF95FF96FF913A
:1061D000FF9AFFA8FF9FAC1C9FFFAD9E1814BCFF49
:1061E000C1FFBAFFBDFFB6FFB4FF8DFF5FFF6AFFBF
:1061F0008008100A9CFFB9FFC0FFDCFF0E122712B7
:106200007112A312F1080C1332017201D9013A0282
:10621000D3028BA211100D044B038A020F029F01BF
:106220003E01EC128E124712131CD6FFA44C181A12
:1062300074FF53FF4FFF47FF43FF37FF2FFF29FF37
:1062400010FF1BFF30FF46FF6B9C1C65FF6EC218E2
:106250001071FF6FFF82FF93FF9EFFA0FFA7FFB0AB
:10626000A01AA00C1C8EFF838C180E93FF87FF7062
:10627000FF78FF66FF54FF45421A343A1A51D01A8C
:1062800053121A6C2216AAFFD0FF11124F12951248
:10629000D4080C1318016701AB015102FB02CEA414
:1062A000100C9503D2022C02B9014301F612B1126F
:1062B00072122B1808E1FFA1FF68FF495618184118
:1062C000FF1EFF0DFF01FFEEFEE7FEE3FEF2FE0DF7
:1062D000FF20FF31FF33AA181831FF26FF0FFFD52B
:1062E000FEC6FFC9FFD3FFC5FFB9FFBCFFB1FFA3C7
:1062F000A21A8D9C180A86FF7DFF81FF76FF73CC62
:106300001A4F30180821FF32FF44FF52A41A6612B8
:106310001A652016A4FFCEFF0A1253127812B81283
:10632000E11A58A20E134702C3028EA211100F04E5
:106330006903C0024102DA0166011301C2127F1231
:106340003D1201180AD5FFB0FF9DFF82FF72F61AB9
:1063500031A61812E0FE8FFEDBFFDAFFE2FFD7FF67
:10636000D5FFD6FFD29A180CC6FFB5FFB7FFBFFF07
:10637000B4FFBA041AAA76180893FF84FF71FF7459
:10638000A01E7CFF7AFF7F3E180865FF55FF43FF84
:1063900037D4180846FF4BFF5DFF56201C86FFA030
:1063A0003614D5FF0D1257129212CB080E1311019D
:1063B0005C01AD01100291022203CBA410106C030A
:1063C000F3028A022602D60179012101B212581E77
:1063D000D7FFE5FFE902180AEBFFDEFFEAFFDCFF6B
:1063E000CF921CC3FFCC9A1CCFFFD49A1EC7FFBB11
:1063F000FFBE921814ABFF9EFFB6FFADFFB3FFB216
:10640000FF9FFF9AFF8EFF8598180870FF83FF7B20
:10641000FF77B0180E60FF6EFF68FF64FF28FF2B48
:10642000FF489E1A591C1A8F181008A5FFC2FFE3D7
:10643000FF171255128D12ED080E1333018E01EB6A
:10644000016D02DF027303F2A201FF01B813070717
:10645000230303124723F1011215329322401B201C
:10646000BC041AD804125029025A3C021216120116
:1064700012461226120B123732131246122B320F0B
:1064800012031205120212041A0624121E3A3202D4
:1064900012A93219120C1B4C681F44080102120A7F
:1064A0003264295069041C0C0C3C461A16541A011B
:1064B00056290E121E3D040407472F011B230A0A0A
:1064C0003A02253204900C02020802070103010877
:1064D0000708490A12041A599A195D150702FE069F
:1064E000EB4008580A1D0E10412A126201111210C9
:1064F0001FE02E02021EFF862D01010201014993B9
:10650000E904111A031954414E075A44085A520813
:106510005A42085A53085A46085A54081B504E3DCE
:10652000314C454E03204A31105B4632085A33083D
:106530004A34085A4F30198D3903299639064909CA
:106540000911034302050000FFFFFFFFFFFFFFFFEC
:10655000FFFFFFFFFFFFFFFFFFFFFFFFFFFFFFFF4B
:10656000FFFFFFFFFFFFFFFFFFFFFFFFFFFFFFFF3B
:10657000FFFFFFFFFFFFFFFFFFFFFFFFFFFFFFFF2B
:00000001FF
